:020000040800F2
:1000000000000220B9020008C1020008C502000871
:10001000DD020008E1020008F9020008000000000B
:1000200000000000000000000000000011030008B4
:10003000150300080000000019030008CD23000884
:100040002D0300082D0300082D0300082D030008D0
:100050002D0300082D0300082D0300082D030008C0
:100060002D0300082D0300082D0300082D030008B0
:100070002D0300082D0300082D0300082D030008A0
:100080002D0300082D0300082D0300082D03000890
:100090002D0300082D0300082D0300082D03000880
:1000A0002D0300082D0300082D0300082D03000870
:1000B0002D0300082D0300082D0300082D03000860
:1000C0002D0300082D0300082D0300082D03000850
:1000D000F9230008D92300082D0300082D03000888
:1000E0002D0300082D0300082D0300082D03000830
:1000F0002D0300082D0300082D0300082D03000820
:100100002D0300082D0300082D0300082D0300080F
:100110002D0300082D0300082D0300082D030008FF
:100120002D0300082D0300082D0300082D030008EF
:100130002D0300082D0300082D0300082D030008DF
:100140002D0300082D0300082D0300082D030008CF
:100150002D0300082D030008E92300082D030008E3
:100160002D0300082D0300082D0300082D030008AF
:100170002D0300082D0300082D03000800000000D7
:100180002D0300082D03000800B583B001F0EAFD3F
:10019000384B394A1360394A136039490CE00A6810
:1001A0004B6801F10C04886803E01168196004339E
:1001B00004329842F9D82146324B9942EFD32E4B64
:1001C0001A68314B9A4204D12C4B1A682F4B9A4231
:1001D00000D0FEE7274B2E4A13602E4A13602E4BA9
:1001E0000AE0194651F8082B5B6802E00020106015
:1001F00004329A42FAD30B46284A9342F1D3244B55
:100200001B6813B9234B1B6803B1FEE701F0B6FD71
:10021000694601A801F09EFD214C224B1C1BA41035
:10022000002504E01E4B53F8253098470135AC42B9
:10023000F8DC1D4C1D4B1C1BA410002504E01A4BC0
:1002400053F8253098470135AC42F8DC0099019805
:1002500002F01EF80546164C164B1C1BA41004E0B9
:10026000013C134B53F824309847002CF8DC284607
:1002700001F06EFDBABADECA0000002010000020B6
:100280003003000848030008785634123254769838
:10029000140000204801002048030008580300080B
:1002A00058030008580300085803000858030008C2
:1002B000580300085803000808B5FFF765FF00BFA2
:1002C00000BEFEE71EF0040F0CBFEFF30880EFF353
:1002D00009807146124A104700BEFEE700BEFEE7E5
:1002E0001EF0040F0CBFEFF30880EFF30980714696
:1002F0000C4A104700BEFEE71EF0040F0CBFEFF3E0
:100300000880EFF309807146074A104700BEFEE7F8
:1003100000BEFEE700BEFEE700BEFEE7704700003D
:10032000D9020008F50200080D03000800BEFEE730
:10033000FC2400080000002014000020FC24000819
:100340000000001000000010140000204C010020EC
:08035000000000100000001085
:1003580010B50446074B1B680748A0FB033080090B
:1003680000F0B8F8002221464FF0FF3000F05AF8AC
:10037800002010BD0C000020D34D621008B50B4BB7
:100388001A6842F400721A601A6842F480621A60AD
:100398001A6842F480721A60032000F025F80F20D2
:1003A800FFF7D6FF01F088FF002008BD003C02409F
:1003B800024A136801331360704700BF2800002009
:1003C800014B1868704700BF2800002010B582B0A4
:1003D8000190FFF7F5FF0446FFF7F2FF001B019BB2
:1003E8009842F9D302B010BD10B50446C31E042BC1
:1003F80003D9A421094801F05DFF094AD36823F411
:10040800E0631B041B0C240204F4E064234343F060
:10041800BF6343F40033D36010BD00BF0824000855
:1004280000ED00E070B504460E4615460F2A03D9C4
:10043800BC211A4801F03EFF0F2E03D9BD211748F1
:1004480001F038FF164BDA68C2F30222C2F1070145
:10045800042928BF0421131D062B01D9033A00E003
:100468000022012303FA01F101393140914003FAD6
:1004780002F2013A2A400A43002C06DA04F00F047B
:100488001201D2B2074B1A5570BD1201D2B204F153
:10049800604404F5614484F8002370BD0824000812
:1004A80000ED00E014ED00E010B5041E03DAD021E1
:1004B800064801F0FFFE620904F01F04012303FA55
:1004C80004F4034B43F8224010BD00BF0824000881
:1004D80000E100E00138B0F1807F0AD2064B586095
:1004E800F021064A82F823100020986007221A603B
:1004F80070470120704700BF10E000E000ED00E009
:1005080010B50446042805D020B140F2B3110848BC
:1005180001F0D0FE042C05D1064A136843F0040309
:10052800136010BD034A136823F00403136010BD61
:100538000824000810E000E0704700BF08B5FFF786
:10054800FBFF08BD90F83530DBB2022B03D08023C7
:10055800436501207047052380F835300268136829
:1005680023F0010313600020704700BFF0B583B08B
:10057800044600230193714B1B68714DA5FB03359D
:10058800AD0A876D3E68C26D082393401E4210D0A5
:1005980003681A6812F0040F0BD01A6822F00402DC
:1005A8001A60C26D08239340BB60436D43F001039A
:1005B8004365E26D634B93401E4209D0226852693D
:1005C80012F0800F04D0BB60636D43F002036365D3
:1005D800E26D5D4B93401E4209D02268126812F00A
:1005E800020F04D0BB60636D43F004036365E26DE2
:1005F800102393401E4224D02268126812F0080F7C
:100608001FD0BB6023681A6812F4802F0DD01B68B6
:1006180013F4002F04D1236C9BB12046984710E0B7
:10062800A36C73B1204698470BE01A6812F4807FD8
:1006380003D11A6822F008021A60236C0BB1204615
:100648009847E26D202393401E4252D022681268D8
:1006580012F0100F4DD0BB6094F83530DBB2052B8B
:1006680022D12268136823F01603136022685369A5
:1006780023F080035361236C0BB9A36C23B1226868
:10068800136823F008031360E26D3F239340BB60B7
:10069800002384F83430012384F83530236D002B8F
:1006A80049D02046984746E023681A6812F4802FFC
:1006B8000DD01B6813F4002F04D1636CCBB1204616
:1006C800984716E0E36BA3B12046984711E01A68F3
:1006D80012F4807F09D11A6822F010021A600023F0
:1006E80084F83430012384F83530E36B0BB12046AD
:1006F8009847636DFBB1636D13F0010F17D00523A5
:1007080084F835302268136823F001031360019BD5
:10071800013301939D4204D323681B6813F0010F32
:10072800F5D1002384F83430012384F83530E36CA4
:100738000BB12046984703B0F0BD00BF0C00002065
:10074800B5814E1B01008000040080002DE9F047B0
:1007580082B080460F46A44B984223D003F58063AD
:1007680098421FD003F5806398421BD003F580633D
:10077800984217D003F58063984213D003F580633D
:1007880098420FD003F5806398420BD003F580633D
:10079800984207D003F58063984203D0C521934857
:1007A80001F088FD3B881BB9C621904801F082FD05
:1007B8007B68012B22D9112B20D0022B1ED0122BA3
:1007C8001CD08B4A934219D002F58012934215D05F
:1007D80002F58012934211D0A2F5F81293420DD07F
:1007E80002F58012934209D002F58012934205D097
:1007F800032B03D0C7217D4801F05CFDBB68022BA9
:1008080003D9C821794801F055FD00252CE10124C0
:10081800AC403E682640B44240F025817B68022BFC
:1008280001D0122B4AD13B69C3B3092B36D0ABB3E5
:10083800A3B39BB393B3012B30D02FD0022B2DD071
:100848002CD02BD0032B29D0042B27D026D025D071
:10085800052B23D022D0092B20D0062B1ED0092B04
:100868001CD0072B1AD019D018D0082B16D015D0A9
:1008780014D0092B12D011D00A2B0FD00ED00B2B6D
:100888000CD00C2B0AD009D00D2B07D00C2B05D07F
:100898000F2B03D0D921554801F00CFDEA08083286
:1008A80058F8220005F0070399000F238B4020EA2F
:1008B80003003B698B40034348F82230D8F80030E6
:1008C8004FEA450A4FF0030909FA0AF96FEA0909DC
:1008D80003EA09027B6803F0030303FA0AF31343EC
:1008E800C8F800307B685A1E012A03D9112B01D0A1
:1008F800122B1BD1FB68032B03D9EC213B4801F0D9
:10090800D9FCD8F8083009EA0302FB6803FA0AF3AD
:100918001343C8F80830D8F8043023EA04047B6885
:10092800C3F30013AB401C43C8F80440D8F80C309C
:1009380009EA0309BB6803FA0AF349EA0303C8F89A
:100948000C307B6813F0805F00F08D8000230193EA
:10095800284B5A6C42F480425A645B6C03F480431F
:100968000193019BA9088A1C234B53F8220005F028
:1009780003039B000F229A4020EA02001A4A90457E
:1009880021D002F5806290451FD002F58062904523
:100998001DD002F5806290451BD002F5806290451B
:1009A80019D002F58062904517D002F58062904513
:1009B80015D002F58062904513D002F5806290450B
:1009C8001CD108221BE0002219E0012217E00222B4
:1009D80015E0032213E0042211E005220FE00622AD
:1009E8000DE007220BE000BF000002403C24000895
:1009F800000011100038024000380140092202FAB4
:100A080003F3034302311B4A42F821301A4B1A6898
:100A1800F34302EA0301786810F4803F01D046EA04
:100A28000201154A1160526803EA0201786810F45D
:100A3800003F01D046EA02010F4A5160926803EA7A
:100A48000201786810F4801F01D046EA02010A4AC0
:100A58009160D2681340796811F4001F01D046EA0A
:100A68000203054AD36001350F2D7FF6D0AE02B0E0
:100A7800BDE8F08700380140003C014038B5054624
:100A88000C4621B94FF4C871044801F013FC2B69D6
:100A98001C4201D0012038BD002038BD3C2400088C
:100AA80070B5064615460C4621B940F2B111084802
:100AB80001F000FC012D04D94FF4D971044801F06C
:100AC800F9FB0DB1B46170BD2404B46170BD00BF01
:100AD8003C24000830B583B0044603680F2B03D9C3
:100AE800F5219C4801F0E6FB236813F0010F45D07F
:100AF8006368012B05D9052B03D0FA21954801F02D
:100B0800D9FB954B9B6803F00C03042B0AD0924B3E
:100B18009B6803F00C03082B0CD18F4B5B6813F414
:100B2800800F07D08C4B1B6813F4003F26D06368F6
:100B380023BBCCE12279894B1A7063687BB1FFF73C
:100B48003FFC054605E0FFF73BFC401B642800F22C
:100B5800C081814B1B6813F4003FF4D00EE0FFF70F
:100B68002FFC054605E0FFF72BFC401B642800F22C
:100B7800B281794B1B6813F4003FF4D1236813F05A
:100B8800020F6AD0E368012B04D94FF496717148BB
:100B980001F090FB23691F2B04D940F22D116D48F9
:100BA80001F088FB6C4B9B6813F00C0F0AD06A4B62
:100BB8009B6803F00C03082B1BD1674B5B6813F48D
:100BC800800F16D1644B1B6813F0020F03D0E36843
:100BD800012B40F082816048036823F0F801236903
:100BE800F82292FAA2F2B2FA82F293400B4303601F
:100BF80033E0E368FBB10122594B1A60FFF7E0FBD1
:100C0800054605E0FFF7DCFB401B022800F2678180
:100C1800514B1B6813F0020FF4D04F48036823F0C0
:100C2800F8012369F82292FAA2F2B2FA82F293400A
:100C38000B43036011E00022494B1A60FFF7C0FB29
:100C4800054605E0FFF7BCFB401B022800F249817E
:100C5800414B1B6813F0020FF4D1236813F0080FFF
:100C68002ED06369012B04D940F26D11394801F087
:100C780021FB636993B101223A4B1A60FFF7A0FB8D
:100C8800054605E0FFF79CFB401B022800F22B817C
:100C9800314B5B6F13F0020FF4D011E00022314B9F
:100CA8001A60FFF78DFB054605E0FFF789FB401B3F
:100CB800022800F21A81284B5B6F13F0020FF4D15F
:100CC800236813F0040F60D0A368012B06D9052B05
:100CD80004D040F297111F4801F0ECFA0023019369
:100CE8001D4B1A6C42F080521A641B6C03F080533F
:100CF8000193019B1C4A136843F480731360FFF748
:100D08005FFB054605E0FFF75BFB401B022800F28E
:100D1800EE80154B1B6813F4807FF4D0227A134BB6
:100D28001A70A3688BB1FFF74BFB054607E0FFF786
:100D380047FB401B41F28833984200F2DA80064BA9
:100D48001B6F13F0020FF2D01FE0FFF739FB0546C7
:100D580016E000BF7C240008003802400238024038
:100D680000004742800E4742007000407038024041
:100D7800FFF726FB401B41F28833984200F2BB8004
:100D8800634B1B6F13F0020FF2D1A369022B04D936
:100D98004FF4E6715F4801F08DFAA369002B00F06B
:100DA800AC805B4A926802F00C02082A00F0A78027
:100DB800022B79D1E3693BB1B3F5800F04D040F23F
:100DC800D511544801F076FA236A3F2B04D94FF421
:100DD800EB71504801F06EFA636A323BB3F5BF7F9E
:100DE80004D940F2D7114B4801F064FAA36A022BE8
:100DF8000AD0042B08D0062B06D0082B04D04FF4B9
:100E0800EC71444801F056FAE36A043B0B2B04D911
:100E180040F2D9113F4801F04DFA00223E4B1A60CA
:100E2800FFF7CEFA054604E0FFF7CAFA401B02288E
:100E380067D8374B1B6813F0007FF5D1E169236A47
:100E48001943636A47F6C07292FAA2F2B2FA82F2C2
:100E580093401943A36A5B085A1E4FF4403393FA30
:100E6800A3F3B3FA83F302FA03F30B43E26A4FF0F6
:100E7800706191FAA1F1B1FA81F18A401343244AD1
:100E880053600122244B1A60FFF79AFA044604E0E3
:100E9800FFF796FA001B022835D81D4B1B6813F084
:100EA800007FF5D0002031E000221B4B1A60FFF7CD
:100EB80087FA044604E0FFF783FA001B022824D8C7
:100EC800134B1B6813F0007FF5D100201EE00120B2
:100ED8001CE003201AE0032018E0012016E003209C
:100EE80014E0032012E0032010E003200EE00320AA
:100EF8000CE003200AE0032008E0002006E00120BF
:100F080004E0032002E0032000E0032003B030BD2A
:100F1800003802407C24000860004742244B9B684C
:100F280003F00C03042B3FD0082B01D02148704755
:100F380010B41F4B586800F03F005B6813F4800F33
:100F480010D01D4BB3FBF0F0194B5A6847F6C0712F
:100F58000A4091FAA1F3B3FA83F322FA03F303FBED
:100F680000F310E0134BB3FBF0F0114B5A6847F64F
:100F7800C07402EA040194FAA4F2B2FA82F221FAE5
:100F880002F202FB00F30A4A506800F440324FF4C0
:100F9800403090FAA0F0B0FA80F022FA00F0013068
:100FA8004000B3FBF0F001E00348704710BC704705
:100FB800003802400024F40000127A0070B504469C
:100FC8000D460368013B0E2B04D940F237218F48A8
:100FD80001F070F9072D04D94FF40E718B4801F018
:100FE80069F98B4B1B6803F00F039D4208D9EBB2DC
:100FF800874A1370136803F00F039D4240F0F48092
:10100800236813F0020F1DD0A368A3B1802B12D060
:10101800902B10D0A02B0ED0B02B0CD0C02B0AD008
:10102800D02B08D0E02B06D0F02B04D040F24F2173
:10103800764801F03FF977498B6823F0F002A368FE
:1010480013438B60236813F0010F6BD06368032B85
:1010580004D940F256216D4801F02CF96268012A42
:1010680005D16C4B1B6813F4003F0FD1BEE0931EF3
:10107800012B05D8674B1B6813F0007F06D1B7E03A
:10108800644B1B6813F0020F00F0B48061498B6851
:1010980023F0030313438B60FFF792F90646636856
:1010A800012B0FD107E0FFF78BF9801B41F2883342
:1010B800984200F2A180574B9B6803F00C03042B65
:1010C800F1D12FE0022B0FD107E0FFF779F9801B50
:1010D80041F28833984200F291804E4B9B6803F0AE
:1010E8000C03082BF1D11DE0032B16D107E0FFF705
:1010F80067F9801B41F28833984200F28180454BA2
:101108009B6803F00C030C2BF1D10BE0FFF758F9A7
:10111800801B41F28833984274D83E4B9B6813F089
:101128000C0FF3D13A4B1B6803F00F039D4207D213
:10113800EAB2374B1A701B6803F00F039D4263D164
:10114800236813F0040F19D0E36883B1B3F5805F07
:101158000DD0B3F5A05F0AD0B3F5C05F07D0B3F5E3
:10116800E05F04D04FF42D71284801F0A3F8294915
:101178008B6823F4E052E36813438B60236813F011
:10118800080F1AD0236983B1B3F5805F0DD0B3F58A
:10119800A05F0AD0B3F5C05F07D0B3F5E05F04D015
:1011A80040F2BB21194801F085F81A4A936823F4E4
:1011B8006043216943EAC1039360FFF7AFFE154B13
:1011C8009B6803F0F002F02393FAA3F3B3FA83F3D6
:1011D80022FA03F3104AD35CD840104B18600F2052
:1011E800FFF7B6F8002070BD012070BD012070BD6A
:1011F800012070BD012070BD032070BD032070BDAB
:10120800032070BD032070BD012070BD7C24000840
:10121800003C0240003802406C2400080C0000200A
:10122800014B1868704700BF0C000020F8B5054650
:101238000F4616461C4636E0B4F1FF3F33D02CB1BA
:10124800FFF7BEF8069BC01A84422CD82A68536858
:1012580023F0E00353606B68B3F5827F0BD1AB6872
:10126800B3F5004F02D0B3F5806F04D12A68136834
:1012780023F040031360AB6AB3F5005F0BD12A6813
:10128800136823F400531B041B0C13602A681368AB
:1012980043F400531360012385F85130002385F887
:1012A80050300320F8BD2B689B6837EA030301D14F
:1012B800012300E00023B342BED10020F8BD00BFE7
:1012C80010B582B0044600920B4600228021FFF739
:1012D800ADFF034620B1636D43F02003636503232C
:1012E800184602B010BD00BF002800F0D58010B528
:1012F80004460368694A93420CD0A2F578429342A7
:1013080008D002F58062934204D040F20B11644881
:1013180000F0D0FF63683BB1B3F5827F04D04FF48F
:1013280086715F4800F0C6FFA36853B1B3F5806FBC
:1013380007D0B3F5004F04D040F20D11584800F023
:10134800B9FFE368B3F5006F05D023B14FF4877197
:10135800534800F0AFFFA369B3F5007F08D03BB155
:10136800B3F5802F04D040F20F114D4800F0A2FFD2
:10137800E36993B1082B10D0102B0ED0182B0CD08A
:10138800202B0AD0282B08D0302B06D0382B04D09D
:101398004FF48871424800F08DFF236A33B1802BE7
:1013A80004D040F211113E4800F084FF636A33B163
:1013B800102B04D04FF48971394800F07BFF636A21
:1013C80083B9236933B1022B04D040F21511344894
:1013D80000F070FF6369012B04D94FF48B7130481A
:1013E80000F068FFA36A3BB1B3F5005F04D040F298
:1013F80019112B4800F05EFFA36AB3F5005F0AD10C
:10140800E36A013B4FF6FE72934204D94FF48E71A2
:10141800234800F04FFF94F8513013F0FF0F05D127
:10142800002384F85030204600F090FF022384F80F
:1014380051302268136823F0400313602168626802
:10144800A3681A43E3681A4323691A4363691A4372
:10145800A36903F400731343E2691343226A134335
:10146800A26A1A430A602168638B03F00402636A64
:1014780013434B60A36AB3F5005F02D12368E26AA5
:101488001A612268D36923F40063D3610020606580
:10149800012384F8513010BD01207047003001400D
:1014A800AC2400082DE9F04184B004460E4690466D
:1014B8001D4683683BB1B3F5004F04D04FF4E1718A
:1014C800764800F0F7FE94F85030012B00F0E180E8
:1014D800012384F85030FEF773FF074694F8513023
:1014E800DBB2012B40F0BD80002E00F0BC80B8F1CB
:1014F800000F00F0BA80032384F85130002363659D
:101508002663A4F83480A4F83680A363A387E3870E
:1015180063642364A368B3F5004F04D12268136899
:1015280043F480431360A36AB3F5005F0BD12268CC
:10153800136823F400531B041B0C13602268136800
:1015480043F40053136023681A6812F0400F03D164
:101558001A6842F040021A60E368B3F5006F2CD1B4
:1015680063681BB1E38E9BB2012B21D1236836F847
:10157800022BDA60E38E9BB2013B9BB2E38617E055
:1015880023689A6812F0020F08D036F8022BDA6046
:10159800E38E9BB2013B9BB2E38609E0002D66D047
:1015A800B5F1FF3F04D0FEF70BFFC01B854260D9A1
:1015B800E38E9BB2002BE3D12BE063681BB1E38E73
:1015C8009BB2012B21D1236816F8012B1A73E38EE5
:1015D8009BB2013B9BB2E38617E023689A6812F03E
:1015E800020F08D016F8012B1A73E38E9BB2013B49
:1015F8009BB2E38609E0002D3DD0B5F1FF3F04D052
:10160800FEF7DEFEC01B854237D9E38E9BB2002B66
:10161800E3D100972B46012202212046FFF706FE60
:1016280068BB3A4629462046FFF74AFE18B12023F0
:101638006365012026E0A36833B903932368DA6859
:1016480003929B680393039BA36AB3F5005F04D1DD
:101658002268136843F480531360636D8BB90020CC
:1016680010E002200EE001200CE001200AE0032037
:1016780008E0032006E0032004E0032002E0032042
:1016880000E00120012384F85130002384F8503011
:1016980000E0022004B0BDE8F08100BFAC240008DF
:1016A8002DE9F04385B004460F46154699460C9E31
:1016B8000023ADF80E30836823B140F23631A048DC
:1016C80000F0F8FD94F85030012B00F072810123EE
:1016D80084F85030FEF774FE804694F85130DBB23F
:1016E8006268012B0AD0B2F5827F40F04981A26876
:1016F800002A40F04781042B40F04681002F00F07B
:101708004581002D00F04481B9F1000F00F04281BD
:1017180094F85130DBB2012B02D1052384F8513003
:1017280000236365A563A4F83E90A4F83C90276362
:10173800A4F83690A4F8349023646364A36AB3F5DC
:10174800005F0BD12268136823F400531B041B0CA1
:1017580013602268136843F40053136023681A68FF
:1017680012F0400F03D11A6842F040021A60E36891
:10177800B3F5006F5DD163681BB1E38E9BB2012B9B
:1017880008D1236837F8022BDA60E38E9BB2013B5D
:101798009BB2E3864FF0010942E0B9F1000F23D074
:1017A800E38E9BB203B323689A6812F0020F1BD032
:1017B80037F8022BDA60E38E9BB2013B9BB2E386DB
:1017C800E38E9BB25BB9A36AB3F5005F0AD12268C6
:1017D800136843F4805313604FF0000904E04FF09E
:1017E800000901E04FF00009E38F9BB273B1236851
:1017F8009A6812F0010F09D0DB6825F8023BE38FE5
:101808009BB2013B9BB2E3874FF00109B6F1FF3F62
:1018180006D0FEF7D5FDC8EB0000864240F2BC803A
:10182800E38E9BB2002BB8D1E38F9BB2002BB4D1CF
:101838005EE063681BB1E38E9BB2012B08D123687D
:1018480017F8012B1A73E38E9BB2013B9BB2E38618
:101858004FF0010944E0B9F1000F26D0E38E9BB2A6
:101868001BB323689A6812F0020F1ED0791C3A78CD
:101878001A73E38E9BB2013B9BB2E386E38E9BB265
:1018880063B9A36AB3F5005F0CD12268136843F407
:10189800805313600F464FF0000906E00F464FF0E3
:1018A800000902E00F464FF00009E38F9BB273B1C5
:1018B80023689A6812F0010F09D0DB682B70E38F58
:1018C8009BB2013B9BB2E38701354FF00109B6F1AA
:1018D800FF3F05D0FEF774FDC8EB000086425DD9D6
:1018E800E38E9BB2002BB6D1E38F9BB2002BB2D113
:1018F800A36AB3F5005F15D1CDF800803346012205
:1019080011462046FFF792FC28B1636D43F00203AD
:101918006365032545E02368DB689BB2ADF80E30AC
:10192800BDF80E3023689A6812F0100F0AD0626D65
:1019380042F0020262654FF6EF729A60012502E0FA
:10194800AC2400080025CDF800803346012202218E
:101958002046FFF76BFC18BB424631462046FFF78E
:10196800AFFC18B12023636501251AE0A368C3B949
:1019780002932368DA6802929B680293029B10E044
:1019880002250EE002250CE002250AE0012508E008
:10199800012506E0012504E0032502E0032500E017
:1019A8000325012384F85130002384F85030284659
:1019B80000E0022005B0BDE8F08300BF704700BF1B
:1019C80010B584B0044602685168936803F041007A
:1019D800012806D111F0400F03D0236C2046984708
:1019E8006CE013F0020F06D011F0800F03D0636C87
:1019F8002046984762E013F4B07F5FD011F0200FC3
:101A08005CD013F0400F18D094F85100C0B20328EE
:101A18000BD0606D40F00400606500200090D06835
:101A2800009090680090009807E000230193D36825
:101A3800019393680193019B40E013F0200F0CD0B1
:101A4800606D40F00100606500200290906802908F
:101A5800106820F040001060029A13F4807F09D0CB
:101A6800636D43F0080363650023039323689B6851
:101A78000393039B636D0BB32268536823F0E00361
:101A88005360012384F8513011F0030F13D02268FA
:101A9800536823F003035360E36C23B1084A1A65C3
:101AA800E06CFEF74FFDA36C43B1054A1A65A06CC4
:101AB800FEF748FD02E02046FFF780FF04B010BDA6
:101AC800CD1A000808B5806B0023C387C386FFF7CB
:101AD80075FF08BD0268D36823F49073D360026869
:101AE800536923F001035361202380F83A3070478B
:101AF80090F83930DBB2212B2AD18368B3F5805FA7
:101B08000FD1036A02681B88C3F308035360036993
:101B18001BB9036A0233036209E0036A01330362F3
:101B280005E00268036A591C01621B785360C38C84
:101B3800013B9BB2C3846BB90268D36823F080036E
:101B4800D3600268D36843F04003D3600020704735
:101B58000220704700207047704700BF08B5016831
:101B6800CB6823F04003CB60202380F83930FFF79F
:101B7800F3FF002008BD00BF704700BF08B590F80C
:101B88003A30DBB2222B3ED18368B3F5805F13D1A4
:101B9800826A036943B903685B68C3F30803138067
:101BA800836A0233836218E003685B68DBB21380E0
:101BB800836A0133836210E0036933B9836A5A1C6C
:101BC8008262026852681A7007E0826A531C836254
:101BD80003685B6803F07F031370C38D013B9BB2FE
:101BE800C38593B90268D36823F49073D3600268FD
:101BF800536923F001035361202380F83A30FFF73B
:101C0800BBFF002008BD022008BD002008BD00BFA2
:101C1800704700BF10B5044602681368D168506960
:101C280013F00F0209D113F0200F06D011F0200F86
:101C380003D02046FFF7A2FF10BD002A66D040F26D
:101C48000112104262D013F0010F06D011F4807F08
:101C580003D0E26B42F00102E26313F0040F06D0F6
:101C680010F0010F03D0E26B42F00202E26313F0BE
:101C7800020F06D010F0010F03D0E26B42F004020D
:101C8800E26313F0080F06D010F0010F03D0E26BE7
:101C980042F00802E263E26B002A4AD013F0200FF8
:101CA80005D011F0200F02D02046FFF767FF236808
:101CB8005B6903F04003E26B12F0080F00D1FBB13F
:101CC8002046FFF707FF23685A6912F0400F13D028
:101CD8005A6922F040025A61636B4BB1154A1A6582
:101CE800606BFEF72FFC20B3606B036D984710BD47
:101CF8002046FFF78DFF10BD2046FFF789FF10BD76
:101D08002046FFF785FF0023E36310BD13F0800F23
:101D180006D011F0800F03D02046FFF7E9FE10BD72
:101D280013F0400F05D011F0400F02D02046FFF706
:101D380015FF10BD411D000808B5806B0023C38541
:101D4800C384FFF765FF08BDFEE700BF01230360FA
:101D5800014B0B60704700BF0400002008B500F07D
:101D68000DF8024B024A9A6008BD00BF00ED00E082
:101D78000000000808B500F021F808BD0C4B1A68EF
:101D880042F001021A60002199601A6822F08472F8
:101D980022F480321A60074A5A601A6822F48022B4
:101DA8001A60D9604FF00062034B9A60704700BF19
:101DB800003802401030002400ED00E0224B9B6800
:101DC80003F00C03042B07D0082B09D0002B2DD1CE
:101DD8001E4A1F4B1A602CE01E4A1D4B1A6028E051
:101DE800194B5A685B6803F03F0312F4800F09D05F
:101DF800184AB2FBF3F2144B5B68C3F3881303FB76
:101E080002F208E0114AB2FBF3F30F4A5168C1F33A
:101E1800881101FB03F20C4B5B68C3F301430133E8
:101E28005B00B2FBF3F30A4A136002E0074A084B6F
:101E38001A60054B9B68C3F30313074AD15C044A35
:101E48001368CB4013607047003802400024F40048
:101E58000C00002000127A00DC24000870B584B061
:101E6800064604A800E90E00019C9DF80C500022CB
:101E780029462046FEF714FE41F2883332460549CA
:101E88000548FFF70FFB012229462046FEF708FE0A
:101E980004B070BD3000002034000020F0B587B0D9
:101EA800074606A800E90E000E4CFF232370637056
:101EB800A370039D9DF81460002231462846FEF762
:101EC800EFFD41F2883300933B46074A2146074815
:101ED800FFF7E6FB012231462846FEF7E1FD07B091
:101EE800F0BD00BF300000202C000020340000208E
:101EF8002DE9F04184B001AC84E80700374D4FF07C
:101F0800130885F8008094E80E000120FFF7A6FF6B
:101F180094E80E000320FFF7C1FF03262E7094E813
:101F28000E000120FFF79AFF20232B7000276F7007
:101F38001023AB7094E80E003046FFF78FFF85F84A
:101F4800008094E80E000120FFF788FF94E80E0057
:101F58003046FFF7A3FF04232B7094E80E000120FE
:101F6800FFF77CFF2F7094E80E000120FFF776FF43
:101F780002262E7094E80E000120FFF76FFFA123C0
:101F88002B7080236B7094E80E003046FFF766FFD5
:101F9800029C9DF80D5029462046FEF76FFD00284B
:101FA800F6D10E4F4FF0020887F8008001AE96E890
:101FB8000E000120FFF752FF81233B7080237B70C6
:101FC80096E80E004046FFF749FF29462046FEF7EF
:101FD80055FD0028F9D104B0BDE8F081300000209B
:101FE80030B58BB001AC84E807009DF80C30059340
:101FF80001230693002507950223089305A9FEF7F8
:10200800A5FB9DF80D3005930695079505A902983F
:10201800FEF79CFB94E80700FFF76AFF0BB030BDA2
:1020280030B587B003AB83E80700154C1122227046
:102038000ECB0120FFF712FFFF2323706370A370FC
:102048009DF815100498FEF719FD0028F8D1039C97
:102058009DF81450002229462046FEF721FD41F242
:10206800883300930323074A05490748FFF718FBFD
:10207800012229462046FEF713FD07B030BD00BFF8
:10208800300000202C0000203400002070B58AB0F9
:10209800002401942A4B1A6B42F001021A631A6B4E
:1020A80002F001020192019A02941A6B42F00202B4
:1020B8001A631A6B02F002020292029A03941A6BD4
:1020C80042F004021A631A6B02F004020392039AA4
:1020D80004941A6B42F008021A631B6B03F008039E
:1020E8000493049B174E22464FF470413046FEF786
:1020F800D7FC01250595144B0693079405A91348A9
:10210800FEF724FB4FF47043059306950794089453
:1021180005A93046FEF71AFB059506940794A6F51F
:10212800806605A93046FEF711FB02230593069544
:102138000794089305A93046FEF708FB0AB070BD5E
:1021480000380240000C024000001110000002405C
:1021580008B5064B064A1A605A6002221A72012212
:102168005A7293E80700FFF73BFF08BD1C000020E8
:1021780000080240FEE700BF08B50F480F4B036098
:102188004FF48273436000238360C36003610122BC
:1021980042614FF4007282612022C261036243628D
:1021A80083620A23C362FFF79FF818B1B621044877
:1021B800FFF7E0FF08BD00BF3400002000380040F2
:1021C800EC24000800B595B0002201922A4B196C46
:1021D80041F0805119641B6C03F080530193019BFB
:1021E8000292264B196841F4804119601B6803F478
:1021F80080430293029B0223089301210B91102133
:102208000C910E930F9208221092A8221192129309
:102218000723139308A8FEF75DFC18B18621184818
:10222800FFF7A8FF0F2303930223049300230593CA
:102238004FF4A05306934FF480530793052103A846
:10224800FEF7BCFE18B194210D48FFF793FFFEF787
:10225800E7FF0C4BA3FB00308009FEF73BF9042095
:10226800FEF74EF9002211464FF0FF30FEF7DAF87C
:1022780015B05DF804FB00BF003802400070004054
:10228800EC240008D34D621008B5FEF777F8FFF785
:1022980099FFFFF7FBFEFFF76FFFFFF759FFC82015
:1022A800FEF794F8024B93E80700FFF7B9FEF9E749
:1022B8001C000020704700BF10B582B000240094B5
:1022C800214B5A6C42F480425A645A6C02F48042A0
:1022D8000092009A01941A6C42F080521A641B6CA6
:1022E80003F080530193019B0720FEF77DF82246F7
:1022F80021466FF00B00FEF795F8224621466FF055
:102308000A00FEF78FF8224621466FF00900FEF713
:1023180089F8224621466FF00400FEF783F822462A
:1023280021466FF00300FEF77DF8224621466FF044
:102338000100FEF777F8224621464FF0FF30FEF7FE
:1023480071F802B010BD00BF0038024002681A4B95
:102358009A4230D1F0B587B00024009403F50033D9
:102368001A6C42F480421A641B6C03F48043009395
:10237800009B0C23019302270297039403260496DB
:102388000525059501A90D48FEF7E0F94FF480638E
:102398000193029703940496059501A90848FEF74E
:1023A800D5F9224621462420FEF73CF82420FEF7E2
:1023B8007BF807B0F0BD70470038004000080240C5
:1023C8000004024008B5FDF7F3FFFEF7B7F808BDB3
:1023D80008B50248FFF71EFC08BD00BFEC0000204E
:1023E80008B50248FEF7C2F808BD00BF8C000020FF
:1023F80008B50248FFF7E4FA08BD00BF3400002022
:102408002E2E2F73797374656D2F7372632F737407
:102418006D333266342D68616C2F73746D33326698
:102428003478785F68616C5F636F727465782E6367
:10243800000000002E2E2F73797374656D2F737250
:10244800632F73746D333266342D68616C2F737427
:102458006D3332663478785F68616C5F6770696F76
:102468002E630000000000000102030401020304BF
:10247800060708092E2E2F73797374656D2F7372F2
:10248800632F73746D333266342D68616C2F7374E7
:102498006D3332663478785F68616C5F7263632E7F
:1024A800630000002E2E2F73797374656D2F73727D
:1024B800632F73746D333266342D68616C2F7374B7
:1024C8006D3332663478785F68616C5F7370692E3B
:1024D8006300000000000000000000000102030487
:1024E800060708092E2E2F7372632F6D61696E2EF1
:0424F800630000007D
:1024FC007856341218000020000000000024F4006C
:04250C003254769837
:040000050800018965
:00000001FF
